:020000040000fa
:080000000002040000000000f2
:020000040000fa
:100008009a0200009a0200009a0200009a02000078
:100018009a0200009a0200009a0200009a02000068
:100028009a0200009a0200009a0200009a02000058
:100038009a0200009a0200009a0200009a02000048
:100048009a0200009a0200009a0200009a02000038
:100058009a0200009a0200009a0200009a02000028
:100068009a0200009a0200009a020000e0020000d2
:100078009a0200009a0200009a0200009a02000008
:100088009a0200009a0200009a0200009a020000f8
:100098009a0200009a0200009a0200009a020000e8
:1000a8009a0200009a0200009a0200009a020000d8
:1000b8009a0200009a0200009a0200009a020000c8
:1000c8009a0200009a0200009a0200009a020000b8
:1000d8009a0200009a0200009a0200009a020000a8
:1000e8009a0200009a0200009a0200009a02000098
:1000f8009a0200009a0200009a0200009a02000088
:100108009a0200009a0200009a0200009a02000077
:100118009a0200009a0200009a0200009a02000067
:100128009a0200009a0200009a0200009a02000057
:100138009a0200009a0200009a0200009a02000047
:100148009a0200009a0200009a0200009a02000037
:100158009a0200009a0200009a0200009a02000027
:100168009a0200009a0200009a0200009a02000017
:100178009a0200009a0200009a0200009a02000007
:100188009a0200009a0200009a0200009a020000f7
:100198009a0200009a0200009a0200009a020000e7
:1001a8009a0200009a0200009a0200009a020000d7
:1001b8009a0200009a0200009a0200009a020000c7
:1001c8009a0200009a0200009a0200009a020000b7
:1001d8009a0200009a0200009a0200009a020000a7
:1001e8009a0200009a0200009a0200009a02000097
:0801f8009a0200009a020000c7
:020000040000fa
:100208009a0200009a0200009a0200009a02000076
:100218009a0200009a0200009a0200009a02000066
:100228009a0200009a0200009a0200009a02000056
:100238009a0200009a0200009a0200009a02000046
:100248009a0200009a0200009a0200009a02000036
:100258009a0200009a0200009a0200009a02000026
:100268009a0200009a0200009a020000e0020000d0
:100278009a0200009a0200009a0200009a02000006
:100288009a0200009a0200009a0200009a020000f6
:100298009a0200009a0200009a0200009a020000e6
:1002a8009a0200009a0200009a0200009a020000d6
:1002b8009a0200009a0200009a0200009a020000c6
:1002c8009a0200009a0200009a0200009a020000b6
:1002d8009a0200009a0200009a0200009a020000a6
:1002e8009a0200009a0200009a0200009a02000096
:1002f8009a0200009a0200009a0200009a02000086
:100308009a0200009a0200009a0200009a02000075
:100318009a0200009a0200009a0200009a02000065
:100328009a0200009a0200009a0200009a02000055
:100338009a0200009a0200009a0200009a02000045
:100348009a0200009a0200009a0200009a02000035
:100358009a0200009a0200009a0200009a02000025
:100368009a0200009a0200009a0200009a02000015
:100378009a0200009a0200009a0200009a02000005
:100388009a0200009a0200009a0200009a020000f5
:100398009a0200009a0200009a0200009a020000e5
:1003a8009a0200009a0200009a0200009a020000d5
:1003b8009a0200009a0200009a0200009a020000c5
:1003c8009a0200009a0200009a0200009a020000b5
:1003d8009a0200009a0200009a0200009a020000a5
:1003e8009a0200009a0200009a0200009a02000095
:0803f8009a0200009a020000c5
:020000040000fa
:100400002f8020000e7f22000e01880000000000d7
:10041000000020000000e000020032000001200087
:10042000200288000c00070000432000010020008b
:1004300011000700000020000000e0000200320070
:1004400000000200000000009e0202000000000008
:100450000040da000000fe004440a9000000200037
:100460000000e0000300320000002000a00188002e
:100470004440a80000000600910188008000780038
:100480000000eb0015003700e280400032a0b4000d
:100490009101ba00e280400032a0b4009102ba009b
:1004a000e280400032a0b4000002eb00472bde00e7
:1004b000f507b200602ce10004003a000059eb009f
:1004c0008301e900fdff3e00040037006128e100e0
:1004d000010032000082eb00040007001101ba00a5
:1004e0000200e000e8ff3a00000006003159ba00bf
:1004f0008301e9000c0032002159ba008301e900b0
:10050000080032000400e00003003a00e2804000ee
:1005100032a0b400f5ff370011d9ba008301e90019
:10052000faff3a008100e800e180400032a0b40008
:0c053000000006000040da000000fe00a1
:020000040000fa
:10053c000000fa0074000700850007007d0007002a
:10054c000002eb00044088000100370000000000ae
:10055c000440800005002000360020000700200029
:10056c00860f5200878f5a00f8ff3e00046001008e
:10057c00030037000500370007003700090037007b
:10058c00400020008b0007000900370050002000bd
:10059c008800070006003700600020008500070077
:1005ac0003003700700020008200070000000000ec
:1005bc00e7ff3700849fbe003400f80004002000e1
:1005cc00a40188000000fa008660a900551680007e
:1005dc000402200004826200e00f520046003a0040
:1005ec0011e1a80000000000551680000402200054
:1005fc0004826200e00f5200fbff320025048000f1
:10060c000410200004826200e00f52001e00320031
:10061c008500a90011e1a9000002eb003408880054
:10062c000002eb005408880004408000e00f5200e8
:10063c0003003a0034002000044088002e003700ec
:10064c0004408000e10f520003003a000002eb006e
:10065c00044088002800370004408000e20f52005c
:10066c0003003a00140020000440880022003700e8
:10067c0004408000e30f52001f003a0024002000c9
:10068c00044088001c00370011e1a9000002eb00b7
:10069c00340888000002eb005408880004408000f5
:1006ac00e00f520003003a001400200004408800c0
:1006bc001100370004408000e10f520003003a00a3
:1006cc0024002000044088000b0037000440800008
:1006dc00e20f520003003a0034002000044088006e
:1006ec000500370004408000e30f520002003a007e
:1006fc000002eb00044088000080fa003400f9008e
:10070c004f02be00004006000000fa00c9e2a9003a
:10071c00c9c2a900c9a2a900c982a900cde2a8003a
:10072c00cdc2a800cda2a800cd82a8000080fa00fe
:10073c00000006000000fa00c8a2a8009660a800fd
:10074c008660a9006360a8000080fa000000060023
:10075c000400fa00f47f200075002000048fbe0016
:10076c001e02be0040aade00cfa2de00040278000a
:10077c00740888001e02be00c022dd0004002000a8
:10078c0040aade00cfa2de000402780064088800d4
:10079c001061a800840880000440a1000450a0004f
:1007ac00840888009500a8008500a9000080fa0044
:1007bc00000006000200fa00000f78001e0278000c
:1007cc006123b900c4ff2f00f5ff2f000602420081
:1007dc0087824a003600200007002000860f520056
:1007ec00878f5a0019003e00046001000300370097
:1007fc00070037000b0037000f003700cde2a900cf
:10080c00cdc2a800cda2a800cd82a8000f00370051
:10081c00cde2a800cdc2a900cda2a800cd82a8002f
:10082c000a003700cde2a800cdc2a800cda2a900d5
:10083c00cd82a80005003700cde2a800cdc2a800eb
:10084c00cda2a800cd82a900000000000080fa0013
:04085c000000060092
:020000040000fa
:10086000000800000200000000000000000000007e
:020000040000fa
:020000040001f9
:0457f800ad7b000085
:020000040000fa
:020000040001f9
:0457fc003f3f00002b
:00000001FF
